:020000040000FA
:10000000E0092020890200008D0200008F0200001C
:1000100000000000000000000000000000000000E0
:10002000000000000000000000000000910200003D
:100030000000000000000000930200009502000094
:10004000970200003939000097020000295700008C
:10005000970200009702000097020000970200003C
:10006000000000009702000097020000000000005E
:100070000000000055560000FD560000ED55000040
:10008000D94F00009702000097020000970200007D
:10009000970200009702000000000000000000002E
:1000A000970200009702000000000000000000001E
:1000B0009702000000000000970200009702000075
:1000C00000F002F800F0D1F812A030C80838241867
:1000D0002D18AC4201D100F0C8F80FCCA246AB46B7
:1000E0000CA730CF2D1B083F3F197C427F1E544484
:1000F0002D090426F441641EAC4201D300F0B5F88A
:100100000126334200D0FB1A3343984754465D46DC
:10011000DFE70000D4A40000F4A400000000000009
:10012000103A02D378C878C1FAD8520701D330C840
:1001300030C101D504680C60704700000000000069
:100140007047000000000000002300240025002666
:10015000103A01D378C1FBD8520700D330C100D583
:100160000B60704710B56E2902D101F09FF810BDE9
:10017000702902D101F0CFF910BD662902D109F032
:10018000C9F810BD652902D109F0C4F810BD67296E
:1001900002D109F0BFF810BD612902D109F0C2F8FF
:1001A00010BD03681B0A01D380231943692902D1BA
:1001B00001F046F810BD642902D101F041F810BDEC
:1001C000752902D101F03CF810BD6F2902D101F070
:1001D0004DF910BD782902D101F08AF910BDE92945
:1001E00002D101F0E9F810BDE42902D101F0E4F8F0
:1001F00010BDF52902D101F0DFF810BDEF2902D1C1
:1002000001F040F910BDF82902D101F07FF910BDCD
:100210000368DB0901D380231943632902D101F06C
:10022000AEFE10BD732902D101F0B1FE10BDE3296D
:1002300002D101F0BBFE10BDF32902D101F0BEFED8
:1002400010BD002010BD1FB502F024F804000020EE
:10025000002108F0BDFE401C60600020002108F075
:10026000A1FEE0601FBD10B510BD01F0EBFF11460F
:10027000FFF7E9FF06F0ACFB02F080FB03B4FFF7E9
:10028000F2FF03BC05F09EFB06480047FEE7FEE7D1
:10029000FEE7FEE7FEE7FEE703480449044A054B94
:1002A00070470000C1000000E0052020E009202088
:1002B000E0082020E00820200FB4054910B503AA6B
:1002C000029801F007F810BC08BC04B01847000001
:1002D00038012020034610B50B439B070FD1042A99
:1002E0000DD308C810C9121FA342F8D018BA21BAFA
:1002F000884201D9012010BD0020C04310BD002A52
:1003000003D0D30703D0521C07E0002010BD0378B0
:100310000C78401C491C1B1B07D103780C78401C2F
:10032000491C1B1B01D1921EF1D1184610BD0000C3
:10033000002203098B422CD3030A8B4211D30023E2
:100340009C464EE003460B433CD4002243088B42BC
:1003500031D303098B421CD3030A8B4201D3944649
:100360003FE0C3098B4201D3CB01C01A524183093C
:100370008B4201D38B01C01A524143098B4201D3F6
:100380004B01C01A524103098B4201D30B01C01A21
:100390005241C3088B4201D3CB00C01A524183089B
:1003A0008B4201D38B00C01A524143088B4201D3C8
:1003B0004B00C01A5241411A00D201465241104628
:1003C00070475DE0CA0F00D04942031000D340429D
:1003D00053409C46002203098B422DD3030A8B42D3
:1003E00012D38901FC2212BA030A8B420CD3890171
:1003F00092118B4208D3890192118B4204D3890157
:100400003AD0921100E08909C3098B4201D3CB0194
:10041000C01A524183098B4201D38B01C01A524149
:1004200043098B4201D34B01C01A524103098B424D
:1004300001D30B01C01A5241C3088B4201D3CB0038
:10044000C01A524183088B4201D38B00C01A52411B
:10045000D9D243088B4201D34B00C01A5241411AF2
:1004600000D201465241104663465B1001D3404220
:10047000002B00D54942704763465B1000D34042D1
:1004800001B50549002802DC491C084000E0084687
:10049000C046C04602BD00BFFFFFFF7F70477047E8
:1004A000704700000246C80FC00781434B0030B5BB
:1004B0004B405B009B0D20D01923DB06C91801239C
:1004C0001B05994220DB0324A40704251346AB40F7
:1004D0000BD3002B04D1EB0613409B00E34204D462
:1004E00001246407002312195941FF231B05994277
:1004F0000BD2C9000143500F09E0CB0204D50143E0
:100500000803024305D0054830BDFF21C905084353
:1005100030BD084607210905884330BD0000C07F73
:10052000F0B50C46871A9C410D46861A9D4103D2B0
:10053000C01BA141D21963410D0D1F0DC94EEC1B0B
:10054000AE435CD07F057F0D0026002F51D02D05D6
:10055000AC46A943DD020123ED0A1B051D43202300
:100560001B1B24D41746E740381871412F46E7403B
:10057000CC199D402818314661410C0D27D16144AA
:100580009A4013D50023401C594152000ED1400817
:10059000400001224B005205D34207D305204007FB
:1005A000C14201D5B04900E0B0493046F0BD6B0012
:1005B000002A00D001229A181F23203C1B1B01D5C2
:1005C000002302E0E540281871410C0DD7D001242A
:1005D00024050919C407CD0740084908E40F28433A
:1005E0006144002CD5D00024401C61419A40D0D1F8
:1005F000CDE76A05520DD9D1C90FC907D5E79C4D82
:100600004E00002801D0012400E0002434195F00CE
:10061000002A01D0012600E00026BE19954FAC4209
:100620000CD8AE420AD8B44206D001256D05EC4282
:10063000BCD010461946F0BD9942FCD00020394686
:10064000F0BDF0B51FB40C460F46811A9F412546F8
:10065000861A9D4106D20125ED076F40401ABC4124
:1006600052187B41210D1E0D8D1BAC467D4D8D43D7
:100670007ED075056D0D7CD00D05AE46AC431B03D9
:100680001B0B794D52429D41202366469B1B14D380
:100690001746F740381800260090744160462F46F0
:1006A0000741E41900989D402818664116D4714608
:1006B00071189A4025D5012320E093182A466A41F3
:1006C0005200002B00D0521C1E23203E9B1B002BEF
:1006D00061DD3541EE1728186641E8D500187641EE
:1006E0005B1C9A4000D3401C4B05F3181524E340D3
:1006F00010D3002B52D071467118D30FC01802D3FB
:10070000491C05B0F0BD0123DB079A42F9D140082E
:100710004000F6E701225205B21801D1002853D05B
:100720000123CC0ADB029943891E002A08D1020C5E
:1007300003D0020C0004103902E0024600202039E8
:100740000023550B05D112020823550B01D152018C
:100750000D23550C01D112011B1DD50C01D19200A6
:100760009B1C150D01D152005B1C2025EE1A01E0E7
:100770002CE022E00546F54015439840CA1AE107EF
:1007800069181305C918002ABBDA032040070818A6
:10079000C10FC9070FE071466118B2E7F1074008C1
:1007A0000843711071444A000CD001235B059A4242
:1007B000A7D2C90FC9070020A3E74905490D26D1D3
:1007C000002001E00028F4D100219AE7284D6600BE
:1007D000002801D0012100E0002171185F00002AEB
:1007E00001D0012600E00026BE19224FA94210D8F0
:1007F000AE420ED8B14208D001256D05E94206D0BF
:100800001946A802414010467BE79C4201D0214690
:1008100077E70020394674E710B50C465C4005D5F3
:100820000124E4076340FFF70CFF10BDFFF778FEDB
:1008300010BD30B40C465C4004D50124E40763408D
:1008400030BC6DE630BCFCE670B50124E4076140C5
:100850000D465D4002D4FFF763FE70BD6340FFF7B5
:10086000F0FE70BDFF0700000000F0FF0000F07F09
:100870000000E0FF0000F87FF0B5F94D0C091E09FB
:100880002C402E402F468BB0A7437DD0B543FCD0E3
:10089000002E7AD0002CFCD00D465D40ED0F254394
:1008A000AC1BFF25AD0464190894C502440DC902B0
:1008B0002143500DDC0204430120C00701430443DF
:1008C000D2020191200C110C00958C4601042346A4
:1008D0008B430A9161460904E24D8A430991010A5A
:1008E0007D4449198039097805464D4301266D1824
:1008F000F605751B6943C90C640B891C4C436418CD
:10090000B5012C1B250C2E04B4434C434D43210C44
:10091000691889090591009DE90701D00121C907DE
:1009200004912C4601996708CD072F434C08059D7B
:10093000E10B4D432D0C29466646754302950D4645
:1009400045432E46029D7D1BB44100950D465D43F7
:1009500001942C0C2F040D465543AE462D0C3D43FF
:10096000029503947546049C2D04641B049406D2DE
:10097000029C039D641C002675410395029401AC02
:1009800070CC009F7D1B01E03EE162E1B4410904AF
:100990000095079101940599A4086143090C0C4640
:1009A0004443650BE7040C4666467443A646640B55
:1009B0003C43039502947446049DE4042C1B049468
:1009C00006D2029C039D641C002675410395029487
:1009D00001AC70CC009F7D1BB44101940C465C437C
:1009E0000095650FE7000C465443A646640F3C4350
:1009F000039502947446049DE4002C1B049406D2D3
:100A0000029C039D641C002675410395029401AC71
:100A100070CC009F7D1BB441AE09AF06049DC90098
:100A2000AD092F43049DA406AD060495079D3443EC
:100A300069180791059DE10B4D432D0C294666462B
:100A4000754302950D4645432E46029D7D1BB441DC
:100A500000950D465D4301942C0C2F040D46554323
:100A6000AE462D0C3D43029503947546049C2D041F
:100A7000641B049406D2029C039D641C00267541ED
:100A80000395029401AC70CC009F7D1BB44101948E
:100A90008C050694079C890A611800950791019CB2
:100AA0000599A4086143090C0D464543680BEF0402
:100AB0000D46644665436C0B3C43049FED047D1B6F
:100AC000AC4602D20025641C6841009E019D371B84
:100AD00085410846584301950C46460FC5005443CE
:100AE000600F28436546E4002C1B02D20025401C01
:100AF0006E41019D3F1AB5412846BD098006284335
:100B00008446A009BF064E020699A406761807433C
:100B1000079D002068410A99079019430020099B0E
:100B200000906046FF1913434041E20F64003A43CE
:100B3000A4460446D71A8C41A04203D90120009054
:100B400020463A46C70F941840416246D20F2243CE
:100B5000644664000494009CBE466400D71AA44610
:100B6000044602978C417746002F01D1A04204D958
:100B70006046401C8446029A2046C40FA64694183C
:100B80004041049A0546D20F224364466400D31ABA
:100B90008D417146002901D1A84202D928461A4642
:100BA000641C10430122002800D01643610200207B
:100BB000079B891904465C410223002C02DB49187B
:100BC00013466441089DCE0A2D145D194B05670537
:100BD000E10A2C050D1908993E43C9076940002B0D
:100BE00008D0934006D30022761C5141002B01D13E
:100BF000760876001C4A002D43DB154241D0AA43FB
:100C00003FD030460BB0F0BD06180D464D41174C95
:100C10007642AC411AD395181C465C41134A6D428A
:100C2000A24113D3012252054C00D4420AD15C00E8
:100C3000D4420BD04B4002D592021143E2E7490067
:100C40004908DFE75940C90FC90718E000200849E3
:100C5000D8E7054801420DD10342F7D0F2E7000082
:100C60000000FF07508A00000000F07F0000E0FF56
:100C70000000F87F114859400143C0124140002054
:100C8000C0E70123089A9B069A4205DC032252071B
:100C90008918C90FC907B5E7052252078918074AFD
:100CA0001143D2125140ADE770B515461C460246BD
:100CB0000B4628462146FFF7DFFD70BDFFFFFF7F93
:100CC000F0B58B4C0F09254689B0BD437BD01D097B
:100CD0002646AE43FAD00E465E402740F60F3E430E
:100CE000254071D024012142FBD0FF24AD19A4047A
:100CF0002D1B039501252D05DB02DB0AC9022B43C1
:100D0000C90A29431E010901040F130F05012143DC
:100D10001701880B820391432D098C46A90B1E43B2
:100D20008A039543B30B9A0396433F09BA0B940386
:100D3000A74302962E467E430497B6464E19D7190E
:100D40000C460196544305977E43371B7646BF1BDE
:100D50003601B646BE0B361900967646BC043719E6
:100D6000009C01D3641C00946400002F01D0012674
:100D70003443029E049F754366467E430496760084
:100D800034196E0034190094029C019E1C196643AC
:100D9000751BAE46069465464519059C05956C4342
:100DA000594375460891691A0191049E01465143C1
:100DB000A41B0491611A009C0791E10605D061090A
:100DC0000122114302E072E06EE06109089D0027F4
:100DD0002C0A2D066918049D7C412A0A2D066918E3
:100DE000019D6241AC0DAD026D185441079A910D01
:100DF000920255196141029A644658435443069B36
:100E0000059A5A43121A131B9A0E9B015B187A41DA
:100E1000010B0005C3185141220A200644195A410A
:100E20009A4200D2491C01204002814203D315237B
:100E30000226F64302E014230326F6432020C51AB7
:100E4000A9401746AF40DA400A4320460399D840EC
:100E50000914731819055118039A3843D2075140E1
:100E6000AC4009D00122944006D30022401C5141DD
:100E7000002C01D1400840001E4A934212D30122A7
:100E800003989206904207DB0520400709181A488C
:100E90000143C012414004E0032040070818C10F7D
:100EA000C907002009B0F0BD0020F107FAE70518D6
:100EB0000C464C4111486D42A04115D394181A4676
:100EC0005A410E48644290410ED301204A00400529
:100ED000824209D35A00824206D35940C90F084AB8
:100EE000C90700201143DDE700200649DAE70000CA
:100EF0000000FF07FE070000FFFFFF7F0000E0FF8C
:100F00000000F07F0000F87F0121C905012341188E
:100F100042001B06D3185B0E0AD0C1100722D2066E
:100F2000891840075242D14201D5520089187047B2
:100F3000090208D50146002A03D0C10FC9070020C5
:100F4000704710467047420202D0002002497047A5
:100F5000072109050143F4E70000F87FF0B5FF25FC
:100F60002D04C609C209FF2704462E400137CB09CC
:100F70003E4348402A402B400746002A6BD0002BB6
:100F800069D0AA4267D0AB4265D0002800DA324669
:100F90000125ED0529432C4309022002090AD21A32
:100FA0004B0C7F24E31A434C000A7C44E35C7D2411
:100FB0002404121914145B00A218884201D3521C95
:100FC00000E0400049420C465C4324115C43DB01D5
:100FD0006415E318040A5C43C502200D0C46444323
:100FE0006419250A5D432303EC0C0D466543000399
:100FF0000019EB184C42A34201D35B18401CD405E6
:101000002018002B07D05B00C91804D3401C00290E
:1010100001D1400840003F2189048A4209D3002AB7
:1010200008DC1106090F04D0032149074018C00F3E
:10103000C007F0BD01224100120689187F22520626
:101040009142F6D205214907C84201D59010F0BD62
:10105000FF20C005F0BD002F00DA32461648AA4234
:1010600007D2AB4205D21902090E17D0F80FC007FC
:10107000F0BDFF2563002D06AB42F9D84900A94217
:10108000F6D8AB4201D1A942F2D0A94201D1002148
:1010900001E061004908D0050843F0BD1102090EC6
:1010A000FBD0FF200243D005F0BD0A4601461046A2
:1010B00054E70000068400000000C07F10B5014620
:1010C0009E240002CA15A307002A02D01843002A52
:1010D00004DBA21A002A0CDDD04010BD1206120E4D
:1010E00001D140004008A21A03D4D0404042002859
:1010F000F3DDFF2248001206904201D9002010BD06
:10110000C817C043584010BD1F22030C02D10F2244
:1011100000041CD0030E01D10002083A030F01D1D4
:101120000001121F830F01D18000921E002801DBF5
:101130004000521ED2055118021251181922904037
:1011400004D3491C002801D14908490008467047CA
:10115000C10FC90700D04042012292071143D3E7D3
:1011600001218907D0E710B500F0D6FA006810BD5C
:1011700010B5044600F0D0FA046010BD70B5044606
:1011800085690068C10601D5302600E02026C00729
:1011900007D070BD62683046A1689047206A401C45
:1011A00020626D1EF6D570BD70B504468569007865
:1011B000C00707D170BD6268A16820209047206AEF
:1011C000401C20626D1EF6D570BD09684A0501D528
:1011D00040B27047C905FCD500B2704709684A059E
:1011E00001D5C0B27047C905FCD580B2704770B553
:1011F0000C460546012A05D02878800600D5EA6904
:10120000002302E0012305E05B1C934202D2E05C74
:101210000028F9D1A869E618C01AA861286AC01880
:1012200028622846FFF7AAFF04E06A682078A968C8
:10123000641C9047B442F8D32846FFF7B5FF70BD51
:10124000F7B5002575291068009914A611D0FFF78D
:10125000BCFF002802DA404211A608E000990968A4
:101260008A0701D50FA602E0490704D50EA601257D
:1012700001E0FFF7B3FF009F0024243704E000F0F3
:10128000C6FE30313955641C0028F8D12B46324651
:101290002146009800F081FAFEBD00000000000029
:1012A0002D0000002B0000002000000011680268E3
:1012B000006A530501D5087009E0D30501D50880FF
:1012C00005E0130602D5C21705C100E00860012041
:1012D00070470000084B70B50D467B4400F031FEAE
:1012E0000446284600F06EFE002802D00020C043CD
:1012F00070BD204670BD000083550000F7B5044660
:10130000154686B02B487844002703C83E46009017
:10131000019111E007986A467100415A02A800F055
:1013200055FE411C07D02178890603D5E26939189A
:1013300091420ED83F18761C2078800602D5E069CD
:10134000B84206DDAE42E5DB07987100405A00283E
:10135000E0D1A069C01BA0612046FFF70FFF154830
:1013600078445A3803C800900020019116E04100EB
:101370006A460798415A02A800F028FE0590401CD2
:101380000AD0002505E0626802A8A168405D904788
:101390006D1C05988542F6D30498401CB042049019
:1013A000E5DB206AC01920622046FFF7FDFE09B088
:1013B000F0BD00003E810000F7B5D21D0025D20827
:1013C00015A6D200F52905CA11D0002A05DA002198
:1013D0004042914111A60A4608E0009909688B072E
:1013E00001D50FA602E0490701D50EA60125114639
:1013F000009F0024243704E000F092F930323A557F
:10140000641C02460A43F7D12B4632462146009817
:1014100000F0C3F9FEBD0000000000002D00000038
:101420002B0000002000000070B504460021243489
:1014300008E05507D2086D0F303565545D072A4323
:10144000DB08491C15461D43F3D10468002310A294
:10145000250708D520252C400C4304D0C46901235E
:101460000CA2641EC46100F098F970BD10B504466A
:1014700021461068FFF7B2FE002302462046FFF720
:10148000D3FF10BDD21DD108C9000CC9CCE70000A4
:101490000000000030000000F8B50F460188090583
:1014A00002D5224C7C4402E0204C7C440E3405469C
:1014B0000021243508E016071209360FA65D6E5488
:1014C0001E0732431B09491C16461E43F3D1224610
:1014D00004780023240705D5702F06D0002901D0F9
:1014E0000223113200F059F9F8BD01231032F9E757
:1014F00070B504460D4621461068FFF76FFE0023C5
:10150000024629462046FFF7C7FF70BDD21DD3080B
:10151000DB000CCBC0E730B40368202412682343FF
:1015200003600823C36130BC0023B5E7A87F000037
:10153000F3B50446002081B020622046E168884768
:10154000002872D0252802D06268A168ABE0594F0C
:1015500000267F442046E16888472028054608DBAE
:10156000312D06D2781920380078002801D00643A2
:10157000F0E7B00701D5042086430020E06107466C
:10158000A0612A2D0AD0284607F0CBF9002827D0E1
:10159000B8000019303D0090856119E00298BA004A
:1015A000121902C8916102902046E1688847012F14
:1015B000054617D1E06900281FDA202086431CE089
:1015C00000980A21806948430099401930388861A1
:1015D0002046E1688847054607F0A3F90028EFD1C7
:1015E000012F0AD02E2D08D12046E16888470546F4
:1015F000202006437F1C022FC3DBA069002803DAEA
:101600004042A06101200643F00701D0102086432C
:101610006C2D0BD0682D09D04C2D3CD06A2D38D0C4
:10162000742D38D07A2D36D016E040E0E1682F4690
:1016300020468847B842054609D16C2F29D00120A1
:101640008002E168064320468847054604E06C2F87
:101650001DD0FF2001300643002D28D028464138F8
:10166000192803D80120C0020643203520462660F1
:101670002946029A1646FEF775FD002810D001286B
:101680000BD0F61DF008C0000830029055E740204E
:10169000E1E78020D5E70020D3E7361D02964CE72E
:1016A00062682846A1689047206A401C44E7206A87
:1016B000FEBD0000227F000070B505464800440DC5
:1016C000124B0020002C0AD0634008D09A4206DA60
:1016D0006642B24203DD12054019514170BD002C33
:1016E00008D0002B09D0C90FC907002AF6DB084A29
:1016F000114370BDC90FC90770BD28460A031043C6
:1017000002D00020034970BD284670BDFF070000CD
:101710000000F07F0000F87F004870477000202034
:101720000B4670B5024689078008084319469D0894
:10173000141AA94125090807054308092C1948412D
:10174000250A01060D43010A2C194141200C0D0404
:1017500028430D0C00194D41002140194D41C0088E
:1017600069070843E908840F8D0025438400241885
:101770004D4124196D41121BAB4107E00925ED4392
:101780002C11521963410024401C61411C460A255A
:101790000026551BB441F1D270BDFFB504460D467D
:1017A00081B0243000902168880604D51022E069B9
:1017B0009143216000E00120A84201DD471B00E0C9
:1017C00000270498A1697A191018081AA0612078D6
:1017D000C00602D42046FFF7D1FC002608E003989B
:1017E0006268A168805D9047206A401C761C206278
:1017F00004988642F3DB2078C0060AD52046FFF71E
:10180000BDFC06E06268A16830209047206A401C59
:10181000206238467F1E0028F4DC07E000986268EA
:10182000A168405D9047206A401C206228466D1EDA
:101830000028F3DC2046FFF7B7FC2078000602D52D
:10184000022005B0F0BD0120FBE70000FFB50C460B
:101850001E468FB003CA089009914F007D0D00D13C
:101860006D1E002108460020C0460321099A890503
:101870000840002A03DA8200801840080840800DE2
:1018800001280A9002DD0020C0430A90089807430F
:101890000DD0F048F049281848430714189800283C
:1018A0001DD07542291E1DDD0A9842421BE0189882
:1018B000012802D00020302104E00020F24305E09E
:1018C0002154401CB042FBDB30460022189B002113
:1018D00021540F998B600A60486013B0F0BDBD1BA6
:1018E0006D1CDFE70A9A002900DA69420BA800F0B4
:1018F00019FD0BAB07CB03AB07C30899099800F0A0
:101900007DFD6B4607C30146D4480918002D0091A0
:101910000BDDD24903980A9A49424018002303A9D3
:101920000390684600F0DAFF08E003990A9A002362
:10193000081803A90390684600F07AFF6B4607C3B6
:101940000004000C03D00020C043410800E0104612
:10195000189A002A03D00022009215461EE0751E38
:1019600005D4FFF7DDFE303262556D1EF9D5012238
:101970000843079602D000227F1C04E0207830281C
:1019800001D100227F1E002A069787D01EE0112D6C
:1019900007DAFFF7C5FE303262556D1C02460A4376
:1019A000F5D1084303D00098002819D00EE000219B
:1019B000681E05E0235C625C63542254401E491C8F
:1019C0008142F7DBA81B401E07950690079A1899DD
:1019D0000020A0540F98079B069A81600CC07CE7FA
:1019E00011260020189059E7D21DF0B50D46044687
:1019F000D10893B0C90003C90C900D9106F0E6FE22
:101A000002460D98C00F01D02D2007E02068810705
:101A100001D52B2002E04007C00F4001032A0F90A0
:101A200001D0072A05DB03462946204600F036FC94
:101A30000EE12078800601D5E76900E006272846F8
:101A4000652D04D0662814D0672D69D12DE00020C3
:101A5000112F009001DB112300E07B1C0CAA03A9CD
:101A600010A8FFF7F3FE1199002610987D1C0E9127
:101A700042E001203B460CAAC0070B9001200090D9
:101A800003A910A8FFF7E2FE119D129810990026F5
:101A900000280E9501D1781C0D18781B02D44642FF
:101AA0007D1C761EE81B00903AE0012F00DA01272A
:101AB0000020112F009001DD112300E03B460CAA0D
:101AC00003A910A8FFF7C2FE11993D461098002601
:101AD0000E91217809070BD40E99A94200DA0D4620
:101AE00003A9012D04DD4A19203AD27F302A06D0FD
:101AF000B84201DA011D04DA012100910FE06D1EE8
:101B0000EFE7002802DC86192D1A03E0411CA942E8
:101B100000DD0D46801B401C00900120C0070B908B
:101B20002078000705D40098A84202DB0020C043BB
:101B3000009069460020C8720B98012102AF03375C
:101B4000C907884225D0022010902B2011900B98B5
:101B500000280BDA40420B902D20119006E00B98E4
:101B600000F055FA30317F1E0B9039701099481EE5
:101B700000291090F3DC0B980028F0D111987F1EFB
:101B800038702088000501D5452000E065207F1EC3
:101B9000387001A8C01BC01D0B900F98002800D002
:101BA000012041190098C01709180B980818A1695D
:101BB000081A401EA0612078C00602D42046FFF714
:101BC000DDFA0F98002805D06268A1689047206A66
:101BD000401C20622078C00625D52046FFF7CEFAAB
:101BE00021E0002E07DB0E98B04204DD03A86268F6
:101BF000805DA16802E06268A16830209047206A99
:101C0000761C401C20620098401E002800900AD1DB
:101C100000F040FBC06862680168405CA1689047C2
:101C2000206A401C206228466D1E0028D9DC07E08F
:101C300062683878A1687F1C9047206A401C206247
:101C40000B99481E00290B90F2DC2046FFF7ACFAF6
:101C5000032042E601FCFFFF104D0000E1DFFFFF23
:101C6000D21DF0B504460D46D0088DB0C0004668C0
:101C700007683146384606F0A9FD0246F00F01D04C
:101C80002D2307E02068810701D52B2302E04007C0
:101C9000C00F43016846002B037001D0012000E013
:101CA0000020032A0A9001D0072A04DB2946204697
:101CB00000F0F4FA2DE12078800601D40D2500E033
:101CC000E5697000400D0D2D01904BDA300D0021BB
:101CD0000B9008460020C046032189050840002ECD
:101CE00005DA82008018C20F1018401008408015D5
:101CF000012801DD0020C043A9000023182906D3D4
:101D00009C460A460123183A1B07D34003E00122F0
:101D10001205CA4094460C31202902D33A46203994
:101D200000E032468A40002802DD002A06D119E090
:101D3000002817D10121C9078A4213D319466346E7
:101D40007F185E41002806D10120C007824202D1DF
:101D5000084687439E430B98310D814202D001987B
:101D6000401C01902088000502D57149794402E0A9
:101D70006F49794419396B460A9830221A540A98E7
:101D80000A7C401C1A54401C0A900198002801DC6F
:101D9000302000E031201872019A0120002A02D080
:101DA000644BD21804E072003A4302D0614A521CDC
:101DB0000192002D02DC2278120703D56A462E20FC
:101DC000507202200022864694460CE0320336010F
:101DD000120F6D1E8B5C02AA13546246521C401CEB
:101DE0009446052A01DA002DF0DC002202AE08E05C
:101DF0003B0F3F01CB5C521C6D1E3354401C082A24
:101E000001DA002DF4DC23689A0601D511E0401EAA
:101E1000704504DD3218203AD27F302AF7D00028EE
:101E200007DD3218203AD27F2E2A02D11A0700D4B9
:101E3000401E002D03DD3E223254401C6D1E497CA5
:101E400031540199401C002906DA2D21471C3154D8
:101E500001984042019003E02B21471C3154019826
:101E60007D21C900884206DBFEF76CFA3030F05560
:101E70007F1C019101E0642808DB01986421FEF7D2
:101E800061FA3030F0557F1C019101E00A2806DB31
:101E900001980A21FEF756FA3030F0557F1C019860
:101EA0000A21FEF74FFA3031F1550A98A1697F1CDB
:101EB0007A191018081AA0612078C00602D42046AA
:101EC000FFF75CF9216A6E460A980818206204E060
:101ED00062683078A168761C90470A98401E0A9084
:101EE000401CF5D12078C00602D52046FFF746F900
:101EF00002AE09E03078761C3E280DD06268A168F9
:101F00009047206A401C20627F1EF3D22046FFF7D4
:101F10004BF90DB00320F0BD206A4019206203E0A8
:101F20006268A168302090476D1EEDD3F8E700008D
:101F3000D377000001FCFFFF01694A1C02610878A9
:101F4000704700B58FB002910021059105490193BA
:101F500079440391114604906846FFF7E9FA0FB0FF
:101F600000BD0000E5FFFFFF10B54369002B02D064
:101F7000C046C04601E0FFF73AF9012010BD1278D3
:101F8000014624310A7000224A700122ECE71168F0
:101F90000022D243E8E710B54369002B02D0C046C7
:101FA000C04601E0FFF7AAF9012010BD12880146E2
:101FB000243182840022C2840122ECE711680022CD
:101FC000D243E8E7C068802108407047F8B516465C
:101FD0000C46054600F056F90368FF200230C05C4D
:101FE000012807D0FF2C0FD8185D00280CD0012045
:101FF0002C70F8BDFF333246214608331868C718E5
:1020000028460023B847F8BD0020C043F8BD01466C
:102010008008081A02091018020A1018020C101879
:10202000C008820012185200891A01E0401C0A39C7
:102030000A29FBD270470000F8B5264C4E00069DD9
:10204000A6420AD8A64201D1002806D15E00A642C7
:1020500003D8A6420AD1002A08D00D242404254220
:1020600033D02946002000F091FCF8BD0C461C43FB
:1020700011D4994207D0C81A02D3EFF30080F8BDFB
:10208000EFF30080F8BD801A02D3EFF30080F8BDB3
:10209000EFF30080F8BD09242407E5008B4207D048
:1020A000581A02D3EFF3008006E0EFF3008007E058
:1020B000101A03D3EFF30080A04303E0EFF3008096
:1020C000A043284380F30088F8BD009500F076FC1B
:1020D000F8BD00000000E0FFF0B53D4B02460C46A5
:1020E0001C400020002C63D03A4D8B4366D0002961
:1020F0006BDB0B0D1D05A94301252D05294301248B
:10210000FD33E34001D392184941FF3381339C46AC
:102110008B02940D0121234389074C429202002730
:102120001B198C105D1A04D42D1B02D42B4665009C
:10213000491992185B416408F4D15C1A08D401254E
:10214000ED07EE175519744102D42A462346491C5F
:1021500094185B41012292071D46E61B8D4106D46F
:10216000B61A854103D42B46550034467F192419ED
:102170005B415208802AEFD1234300D00223384626
:102180000A22D04001D3012213438A05104362463C
:10219000890A12058918002B09D00122D34002D3E5
:1021A0000022401C5141002B01D140084000F0BDED
:1021B0000B03134307D0C90FC907F0BD0803104331
:1021C00003D1002901DB1046F0BD00202946F0BDF7
:1021D0000000F07F0000F87F10B5FF231B064400CD
:1021E0009C421DD84C009C421AD80346124A0B430D
:1021F00007D4401A02D3EFF3008010BDEFF3008044
:1022000010BD081A03D3EFF30080904305E0EFF30D
:10221000008001219043C907084380F3008810BD66
:102220000D231B041A4204D01146002000F0AEFB1F
:1022300010BD00F0CDFB10BD0000009000487047BD
:10224000700020207546FFF7F9FFAE46050069468D
:102250005346C008C000854618B020B5FEF71CF8EC
:1022600060BCB64600260027C0C5C0C5C0C5C0C5F5
:10227000C0C5C0C5C0C5C0C5403D490849008D4660
:102280007047000010B500F005F8001D10BD00BF3C
:10229000416D00000048704790002020F8B51F46AF
:1022A000044601230068DB02032601461840072A82
:1022B00005DB002801D017A506E017A504E00028DB
:1022C00001D016A500E016A5102081432160A06969
:1022D000C01E002FA06101D0401EA0612046FEF765
:1022E0004DFF002F09D038466268A1689047206AE8
:1022F000401C2062C01C206206E0206AFAE7626887
:102300002878A1686D1C9047761EF8D22046FEF70B
:102310004BFFF8BD4E414E006E616E00494E4600C7
:10232000696E6600F7B516468AB0334878446C4645
:1023300003467C33C06F5A689B680DC42E487844AE
:10234000763003AC0DC80DC43720C0010818372102
:102350001B30FDF7F7FF05460C46803D1B3C02D5C0
:102360006442012000E000200027099010E0E0070F
:102370000CD00C2020497843794432464C3941181E
:102380006846012300F054FA6B4607C364107F1CB3
:10239000002CECD1184F7F442E3F16E0E80712D0F6
:1023A0002001C0190EC80691089307920068F042F8
:1023B00001D1981908903246012306A903A800F01C
:1023C00037FA03AB07C36D10641C002DE6D10998E2
:1023D000002806D032466946012303A800F07EFAA1
:1023E00005E001233246694603A800F021FA0A9B62
:1023F00007C30DB0F0BD0000287200000346400086
:102400000A4610B5400D0BD00121C9070F24A402C4
:1024100000191C0364082143540D2143D20207E034
:1024200000210120F2E7D40F490021435200401E51
:102430000029F8DADB0FDB07184310BDFFB50D46A6
:10244000144685B04868516806F0A8F900910190DB
:10245000A868A16806F0A2F902910390A8686168D3
:1024600006F09CF9029A12188242029201D20120CF
:1024700000E00020019A0B18D2180028019202D027
:102480008A4202D903E08A4201D2012000E0002002
:102490000099081800906868A16806F07FF9029A10
:1024A00012188242029201D2012000E00020019A1B
:1024B0000B18D2180028019202D08A4202D903E0F8
:1024C0008A4201D2012000E0002000990818009003
:1024D0002868216840004900400849084018FA4926
:1024E000471814E001994000C90F08430090019873
:1024F00002994000C90F08430190029803994000D7
:10250000C90F08430290039840007F1E0390009873
:102510000028E7DA0898002801D0EC4E00E00026F9
:10252000B74201DA012000E00020002804902AD000
:10253000F71BF806C00E15D0029B2021091A039A3A
:102540008B401A430392029A019BC2408B401A436C
:102550000292019A009BC2408B4000991A4301925B
:10256000C14000917B110DD06F460320C11A03D5E5
:1025700000218200B95003E08A008100BA587A50E5
:10258000401EF3D5374603980299002800D0012059
:10259000014308980291002808460CD0002800D07A
:1025A00001200199019A490508430121D20AC90273
:1025B000D202019200E001210E9B0122D207012BE1
:1025C00002D0002B03D013E0002807D120E0904276
:1025D00004D890420CD1019B0B4209D0019B5918A1
:1025E000019105D10099491C009101D17F1C0092F5
:1025F00000280DD0102108460020C046049800286D
:1026000006D00F98002803D0082108460020C046B5
:1026100028682168019B009A4840C10F0598C907A6
:1026200039430EC009B0F0BDFFB587B0099A0898CC
:102630000899536892684068896896460022039317
:1026400017469446089A12685300099A5B08126864
:10265000520052089A1A9E4BD4180A9A002A01D0A6
:10266000352200E040220692002201231546049202
:10267000DB07059324E0002D05D175460346039E34
:102680004D1BB34109D375466646039B491B049D08
:102690009841059B7519AC465F4163463B4308D0A2
:1026A000059B049EDD0776082E435B080496059380
:1026B00001E0521E641EC50FED0749184041521C2F
:1026C000069B9A42D7DB002D04D17546039A6B1AFC
:1026D000824101D203200CE0039A0B466B4042403A
:1026E000134303D0014303D0012002E0022000E0A5
:1026F0000020614601910021009702910A9900296A
:1027000005D0614640020143704B019102E0800711
:10271000002302909C4201DA012000E00020070023
:102720003AD01A1BD006C00E15D0029D2021019C64
:10273000091AC5408C402543029C8C4000D00124DE
:102740002543019C0295009DC4408D4000992C4377
:102750000194C140009154111DD06D460221002208
:1027600002290CD10320001B07E0002804DB8600AF
:10277000AE59002E00D00122401C0328F5DB081BB7
:1027800002D588002A5004E08000285810438A00AF
:10279000A850491EE3D51C460A98002802980CD080
:1027A000002800D001200199019A49050843012120
:1027B000D20AC902D202019200E00121109B01223B
:1027C000D207012B02D0002B03D013E0002807D141
:1027D0001FE0904204D890420CD1019B0B4209D0DB
:1027E000019B5918019105D10099491C009101D113
:1027F000641C009200280CD0102108460020C0461E
:10280000002F06D01198002803D008210846002088
:10281000C04608980999019A009B006809684840D9
:10282000C10F0798C907214382600AC00BB0F0BDF1
:1028300000B585B0019300920A460146002302A824
:10284000FFF7FCFD02A807C805B000BDFFB50A46AA
:102850001F4685B00799019301230091014602A804
:10286000FFF7ECFD02990398049ECA0F4900D207B6
:1028700000920F22490892028C1A0021002800DBE6
:102880000C46450013486D08844214D3079A002A69
:1028900004DA441E0026104DF64302E004460D46BD
:1028A0000E46102108460020C046002F03D0042108
:1028B00008460020C0462005E90A0843009908435D
:1028C0006905F20A1143ADE602C0FFFF013C0000BA
:1028D000FF3F0000FF070000FFFFFF7F00B585B04E
:1028E000019300920A460146002302A8FFF79CFECE
:1028F00002A807C8A8E7FFB50A461F4685B0079992
:10290000019301230091014602A8FFF78DFE029971
:102910000398049ECA0F4900D20700920F2249086B
:1029200092028C1A0021002800DB0C464500114859
:102930006D08844214D3079A002A04DA441E002644
:102940000D4DF64302E004460D460E4610210846A2
:102950000020C046002F03D0042108460020C046B6
:102960002005E90A0843009908436905F20A114362
:1029700058E60000FF070000FFFFFF7F10B5044688
:10298000C046C0462046FDF779FC10BDC80212D5EE
:102990004803400F002804D0C803C04301218840E9
:1029A0007047EFF300800001000903210907084385
:1029B00080F30088704700207047000010B50020A9
:1029C0000249029A00F050F810BD00000000F87FA4
:1029D00010B5024800F048F810BD00000000C07FAC
:1029E000024670B50A4392072AD11E4DEE0104C873
:1029F00008C9541B9443344017D0D0B2D9B2401AFE
:102A00002106014310D190B299B2401A210401432A
:102A10000AD110021902000A090A401A21020143D0
:102A200002D1100E190E401A70BD9A42DFD010BAB2
:102A300019BA884201D9012070BD0020C04370BD81
:102A400002780B78401C491C002A09D09A4207D111
:102A500002780B78401C491C002A01D09A42EFD022
:102A6000D01A70BD0101010110B50C461107090F04
:102A7000092904D00A290AD008290CD104E01146FA
:102A80000820FFF783FF06E0510606D501E0510656
:102A900001D50120C007214610BDD10607D501018F
:102AA0000909CC084907000E0006044309E0410F5C
:102AB00020024907000A0143200E00061D22D141D1
:102AC00001430846E7E7000080B58AB003F00AF842
:102AD00072488078012807D1FFE77049002088708C
:102AE0006F4901200870FFE76C484079012814D134
:102AF000FFE76A49002048716A480D214901425C9C
:102B0000521C4254405C052806DBFFE765490D2056
:102B1000420101208854FFE7FFE700F089FF01F040
:102B2000B3FB6148007800280BD0FFE75D49112016
:102B3000000108180A6B496B01F0B6FC5B4908609C
:102B400003E05A4900200860FFE759480078002850
:102B50002CD0FFE75348C06A574905F0CAFE002849
:102B600009D1FFE74F480990C06A564906F078FA44
:102B70000999C86211E04B48C06A504905F0AEFEA1
:102B8000002809D1FFE747480890C06A4C4906F081
:102B900067FA0899C862FFE7FFE74248C26A416ADC
:102BA000C83001F081FC4349086003E0414900203E
:102BB0000860FFE74448007800280CD0FFE7394957
:102BC000434A2B20C00008181268096901F06CFC08
:102BD0003E49086003E03D4900200860FFE73D48AA
:102BE0000390006831490291096806F039FA3149C9
:102BF0000491096806F026FB34490591096806F03E
:102C00002FFA029902460398264B07935A610068EF
:102C1000096806F017FB0499096806F021FA05997E
:102C2000096806F01DFA014607988161426901684A
:102C30003830069001F038FC0146079881658269BA
:102C40004168803001F030FC069A01460798916691
:102C5000FF21A231405C012815D1FFE71148009007
:102C6000806DFEF72BFA014600980191A021405893
:102C7000FEF724FA01460198174A1288174B1B8861
:102C800001F056FB08E0144802881448038800212C
:102C9000084601F04DFBFFE70AB080BD3805202053
:102CA000D2052020A4012020340120203001202042
:102CB000980120209C01202000003443000034C3F0
:102CC0000000B4430000B4C34B052020E0002020E6
:102CD0005C03202004012020FE0020200001202091
:102CE00082B001900199881E001F00BFFCD20090A5
:102CF00002B0704784B0039002910192039800687B
:102D00000090009801998843009000980299019AD8
:102D1000114008430399086004B0704784B00390E1
:102D200002910192039800680090009801998843ED
:102D3000009000980299019A114008430399086095
:102D400004B0704784B00390029101920398006828
:102D50000090009801998843009000980299019A88
:102D6000114008430399086004B0704784B0039091
:102D7000029101920398006800900098019988439D
:102D8000009000980299019A114008430399086045
:102D900004B0704782B001900091009B0199094AEC
:102DA00088581843885002B07047C04682B00190DE
:102DB0000091009B0199034A88581843885002B03B
:102DC0007047C0464810000082B001900091009802
:102DD000019995225201885002B0704782B001904B
:102DE00000910098019995225201885002B07047D5
:102DF00082B001900091009801999522520188506B
:102E000002B0704782B0019000910098019995221C
:102E10005201885002B0704782B001900091009832
:102E2000019995225201885002B0704782B00190FA
:102E300000910098019995225201885002B0704784
:102E400082B001900091009B0199034A8858184371
:102E5000885002B07047C0462810000082B0019030
:102E6000009100980199074A885002B07047C04607
:102E700082B00190009100980199024A885002B0F6
:102E80007047C046D012000081B000900099012028
:102E9000C2028648885001B07047C04682B0019097
:102EA00000910198024940580099084002B07047CB
:102EB0003810000081B00090009881002A4A124822
:102EC000885001B07047C04681B0009000988100E2
:102ED000254A0D48885001B07047C04610B584B0EF
:102EE000069C039002910192009302980199084375
:102EF0000099084306990843034908430399890048
:102F0000194A885004B010BD8100040081B00090BF
:102F100000988100144A8120885001B07047C04653
:102F200081B00090009881000F4A8120885001B044
:102F30007047C04682B00190009100980349084351
:102F400001998900084A885002B070478000040047
:102F500082B0019000910098802108430199890076
:102F6000014A885002B070470480424082B001900C
:102F7000009101982721C90140580099084002B0EA
:102F8000704782B00190009101982721C9014058F3
:102F90000099084002B0704782B0019000910198FA
:102FA0002721C90140580099084002B0704782B0FB
:102FB0000190009101982721C901405800990840CB
:102FC00002B0704781B0009000995F4A5F48885016
:102FD00001B0704782B001900091009B0199034AB3
:102FE00088581843885002B07047C04690130000BC
:102FF00082B001900091009801991B4A885002B05C
:103000007047C04682B00190009100980199164A1D
:10301000885002B07047C04682B00190009100987D
:103020000199114A885002B07047C04682B00190A1
:103030000091009801990C4A885002B07047C04630
:1030400082B00190009100980199074A885002B01F
:103050007047C04682B00190009100980199024AE1
:10306000885002B07047C0469012000082B00190B4
:10307000009100980199024A885002B07047C046FA
:10308000B012000081B0009000991A4A88580123BC
:103090001843885001B0704781B00090009901201A
:1030A000C202C148885001B07047C04601000026E6
:1030B00080B582B001900091019811210902401859
:1030C000009A11895388194392791143084AFFF7EE
:1030D0004DFE019807494018009A9188D379194309
:1030E000127811435D229200FFF740FE02B080BDCE
:1030F0007F3300000411000081B00090009808495F
:10310000405810210840000901B0704781B000907C
:1031100000980349405804210840800801B07047D6
:103120001011000081B00090009802494058C0B2D0
:1031300001B070473011000081B000900099024A40
:103140000248885001B0704704080000030000B135
:1031500080B582B00190009101988649401800998D
:10316000024AFFF7C7FD02B080BDC046FF03000062
:1031700082B001900091009800780199044A88502B
:1031800000984078019901221203885002B07047DC
:103190000410000080B584B000920A4601460098F1
:1031A000039102A90A7001AA10700398044BC01879
:1031B0000978127811433F22FFF79CFD04B080BDCF
:1031C0000C11000082B001906846017000780199EE
:1031D00045229201885002B07047000006490868F5
:1031E00001229043086070470349086801221202D7
:1031F000904308607047C04608010B4003490868C7
:1032000001221203104308607047C04604010B40BE
:1032100081B001466846017000780249086001B03B
:103220007047C04608030B4080B582B0014601A834
:103230000170017802480322FFF75CFD02B080BDF7
:1032400000010B40094908680522104308607047D7
:1032500081B000900549042008600098401E044990
:10326000086004490020086001B0704710E000E0E9
:1032700014E000E018E000E080B58CB00B900A91FB
:103280000A984079C00700285CD0FFE70A980079C7
:103290000790002804D0FFE7079820280CD018E0FA
:1032A0000B9888210691022200F0B8F906990B9834
:1032B000032200F0B3F919E00B98212109010591CF
:1032C000022200F0ABF905990B98032200F0A6F951
:1032D0000CE00B980521C9010491022200F09EF92F
:1032E00004990B98032200F099F9FFE70B9800224C
:1032F000029202230193114600F0AAF9029A0B9858
:1033000003230393114600F0A3F90199029B0B9844
:10331000009119461A4600F0D3F9029B03990B98C5
:10332000009119461A4600F0CBF9019B029A0B98BE
:10333000114600F0ABF9029A039B0B98114600F07E
:10334000A5F9FFE70A98006808900A98007908A98B
:1033500008710A98807948710B9800F031F80CB028
:1033600080BD000081B000900099024A0120885081
:1033700001B070470811000082B001900091009BDD
:103380000199034A88581843885002B07047C046D4
:103390002810000081B0009000990120C20202486C
:1033A000885001B07047C0460100002681B00090EF
:1033B0000098812149014058C0B201B07047000017
:1033C00080B58AB009900891089800790790002884
:1033D00004D0FFE70798202812D029E0099808991F
:1033E0000968491E00F0CAF909988821069100224F
:1033F00000F014F906990998012200F00FF92AE06B
:10340000099808990968491E00F0B8F909982D49EA
:103410000491002200F002F9049909980122059212
:1034200000F0FCF805990998490700F097F912E0B7
:10343000099808990968490800F0A0F90998052138
:10344000C9010391002200F0E9F8039909980122CB
:1034500000F0E4F8FFE709980023019319461A46A3
:1034600000F0F6F8019A099801230293114600F042
:10347000EFF8019B0998009319461A4600F020F9CD
:10348000019B02990998009119461A4600F018F913
:10349000019B099819461A4600F0F8F8019A029B18
:1034A0000998114600F0F2F80998B3494018089AB3
:1034B00011795279114302221143034AFFF742FC6A
:1034C0000AB080BD01040000BFFF003080B584B0A9
:1034D0000390029103980299496800F04FF902980D
:1034E00000780190222856D80198810001A0405808
:1034F0008746C0468D350000973500008D350000A9
:10350000973500009735000097350000973500008B
:10351000973500009735000097350000973500007B
:10352000973500009735000097350000973500006B
:103530009735000081350000973500008135000087
:10354000973500009735000097350000973500004B
:10355000973500009735000097350000973500003B
:10356000973500009735000097350000973500002B
:103570009735000081350000973500008135000047
:1035800003980121490700F0E9F805E003980021BC
:1035900000F0E4F800E0FFE703980299098A0022AE
:1035A000009200F0ADF8009B03980299C9681A4692
:1035B00000F04EF802990878097A084303996E4A98
:1035C000885004B080BDC04681B000900099AF4AD9
:1035D000AF48885001B0704782B0019000910098C8
:1035E000019911221202885002B0704780B584B050
:1035F0000390029101A802700399224A8918009150
:1036000001780098890040180090009802990722DC
:103610009204FFF797FB04B080BDC04680B584B02C
:103620000390029101A802700399074A891800913A
:103630000178009889004018009000980299034A88
:10364000FFF780FB04B080BD70180000DB06C00FE0
:1036500010B586B005900491039202A803700599F5
:10366000084A891801910178019889004018019051
:1036700001980499039A1143034AFFF763FB06B0CC
:1036800010BDC046301800007777020010B586B034
:1036900005900491039202A8037005993122D2018A
:1036A00089180191017801988900401801900198CA
:1036B0000499039A11438F22FFF744FB06B010BD13
:1036C00010B587B0009104460098099906940590BA
:1036D0000492039302A801700699084A891801917F
:1036E00001780198890040180190059804990843D1
:1036F000039908430199086007B010BD50180000F5
:1037000084B00390029101A802700399064A8918B7
:103710000091017800988900401800900298009963
:10372000086004B07047C0461018000082B00190D5
:103730000091009800780199714A8850009840786B
:103740000199012212038850009880780199024A59
:10375000885002B07047C0460C11000080B582B09E
:103760000190009101980449401800990322120722
:10377000FFF7E8FA02B080BD0418000082B00190A3
:10378000009100980199024A885002B07047C046E3
:103790000818000081B0009000991120020288589A
:1037A00001239843885001B0704781B00090009980
:1037B00011200202885801231843885001B0704735
:1037C00082B001900091009B0199034A88581843E8
:1037D000885002B07047C0462810000081B00090A9
:1037E00000990120C2020248885001B07047C046CB
:1037F0000100002681B000900098812149014058C5
:10380000C0B201B07047000080B582B00190009155
:103810000198FFF7BFFF0198112109024018009A93
:1038200011889378194392881143084AFFF776FA72
:1038300001982A494018009A9179D3791943127A4C
:1038400011437E22FFF76AFA02B080BD18670200BA
:1038500081B000900098034940580121084001B010
:103860007047C0460811000081B0009000980249DE
:103870004058C0B201B070472411000081B00090E0
:103880000099024A0248885001B0704704080000BD
:10389000030000B180B584B00390029101920398B7
:1038A0000B49401802990B4AFFF724FA03980A497A
:1038B000401801993F22FFF71DFA0399074A88181B
:1038C000895801221140FFF715FA04B080BDC046A7
:1038D00010110000FFFF000014110000041100008F
:1038E00082B001900091009800780199044A8850B4
:1038F00000984078019901221203885002B0704765
:103900000810000080B582B001900091019811214B
:103910000902401800990322D203FFF7EBF902B025
:1039200080BD82B0019068460170007801998922BB
:103930005201885002B0704780B584B03B483021B6
:10394000FFF7ACFA039003A80078C006002812D550
:10395000FFE736482021FFF714FB002805D1FFE7D9
:103960006E490868401E086004E06C490868401C05
:103970000860FFE718E003A800788006002812D549
:10398000FFE72A481021FFF7FCFA002805D1FFE7DE
:1039900062490868401C086004E060490868401EED
:1039A0000860FFE7FFE7FFE7204801903021FFF7BD
:1039B000FDF90198C021FFF771FA029002A8007882
:1039C0004006002812D5FFE718488021FFF7D9FAF2
:1039D000002805D1FFE74F490868401C086004E053
:1039E0004C490868401E0860FFE718E002A800780C
:1039F0000006002812D5FFE70C484021FFF7C1FA66
:103A0000002805D1FFE743490868401E086004E02C
:103A100040490868401C0860FFE7FFE7FFE70348EC
:103A2000C021FFF7C3F904B080BDC04600200A40A2
:103A300080B590B037480E900068FDF789FB364995
:103A40000A91086035480F900068FDF781FB014638
:103A50000A98416032490591096803910068029013
:103A60007F20C005069005F0EDFB0A99896805F0F6
:103A700091FB029902460398049205F08BFB04998E
:103A800005F0EEFA05990A9A0346069893600968CC
:103A900008915268079205F0D5FB0A99C96805F0AC
:103AA00079FB079902460898099205F073FB09997A
:103AB00005F0D6FA0A99C8608868C96805F0D0FA96
:103AC000012189070B91FDF749FA01460A9800691F
:103AD00005F0C6FA0A9908618868C96805F0C0FA55
:103AE0000B99FDF73BFAFDF70FFA0C900D910D487D
:103AF0000068FDF709FA0C9A0D9B019100900A48A5
:103B0000FCF7DAFB0E9A0F9900201060086010B0E5
:103B100080BDC046D4002020A4012020D800202051
:103B20003400202004012020E6A4000080B58AB0E3
:103B300008A90020087007A90A2008707748059096
:103B400001210691FFF754F905980221FFF764FA65
:103B50000698FFF7B9F905980699FFF75DFAFFE7B0
:103B60006E4802210391FFF717FA039908404108B4
:103B700000200129049006D1FFE707A80078411E24
:103B800088410490FFE70498C007002808D0FFE7A9
:103B90000798401E07A90870052002F081F8DFE7AA
:103BA00007A80078002806DCFFE700F08DF809A9D7
:103BB0000120087016E05948019001210091FFF79B
:103BC00017F90098FFF7ACF9019802210291FFF76D
:103BD00023FA01980299FFF74BF9FFE7089809A922
:103BE0000870FFE709A800780AB080BD80B588B0EA
:103BF00007A90691087001200390FFF791F9F34897
:103C0000049002210591FFF707FA04980599FFF740
:103C10002FF903990498FFF7EBF804980599FFF73B
:103C2000E7F8052002F03CF806980078002805D156
:103C3000FFE7E6480221FFF7DBF804E0E348022152
:103C4000FFF7EAF9FFE7E148029001210191FFF750
:103C5000E3F9052002F024F801990298FFF7C8F86B
:103C600002980221FFF7D8F908B080BD80B584B072
:103C700001200390FFF754F9D448029002210091EB
:103C8000FFF7CAF900990298FFF7F2F80298039932
:103C9000FFF7C2F900990298FFF7AAF80099029875
:103CA000FFF7BAF90520019001F0FAFF0099029898
:103CB000FFF79EF8019801F0F3FF02980399FFF7D0
:103CC00097F804B080BDC04680B584B00120009054
:103CD000FFF726F9BD48019002210291FFF79CF9F8
:103CE00001980299FFF7C4F800990198FFF780F84E
:103CF00001980299FFF77CF800990198FFF78CF979
:103D00000520039001F0CCFF01980299FFF784F998
:103D1000039801F0C5FF04B080BDC04600000A4012
:103D200080B586B0034605A8037004AB197003A9DB
:103D30000A700399203901AA117000787F2808DBE6
:103D4000FFE705A9002008700498401C04A908702A
:103D5000FFE705A8007804A9097800F076FB02A91E
:103D600000200870FFE702A80078052811DCFFE7B3
:103D700001A80078062141433248401802A9097879
:103D8000405C00F087FBFFE70298401C02A9087026
:103D9000E9E706B080BDC04680B586B005AB1870B7
:103DA00004A80170039202A90020087001A90870FC
:103DB00069460870FFE7039869460978405C002867
:103DC0003DD0FFE7039869460978405C203802A996
:103DD000087005A800787F2808DBFFE705A9002008
:103DE00008700498401C04A90870FFE705A8007833
:103DF00004A9097800F029FB01A900200870FFE759
:103E000001A80078052811DCFFE702A80078062148
:103E100041430C48401801A90978405C00F03AFB86
:103E2000FFE70198401C01A90870E9E70598801D8B
:103E300005A908700098401C69460870BBE706B0E9
:103E400080BDC046EC95000080B584B003AA009206
:103E5000107002A8019001700298B030C0B200F05A
:103E60000FFB012000F00CFB102000F009FB009874
:103E700001990078097800F0E8FAFFE703A80078D4
:103E80007F2809DCFFE7002000F004FBFFE7039830
:103E9000401C03A90870F1E704B080BD80B584B070
:103EA00002AB01930020188068207521012200F0E8
:103EB0008FF801460D48FCF7FFF901980078682853
:103EC00007D0FFE70B48FCF7F7F903A901200870BA
:103ED00008E002A801780648FCF7EEF903A90020E3
:103EE0000870FFE703A8007804B080BDF1A40000CB
:103EF000FAA400000CA5000080B58AB0012006904D
:103F0000FFF70EF83148029002210391FFF784F881
:103F100002980399FEF7ACFF0A2001F0A5FE069A6D
:103F2000682008906B2104918023079300F0BBF870
:103F3000642001F099FE04990898069A00230593DD
:103F400000F0B1F8032000F016F9059800F005F92B
:103F5000322000F065F9059B069A0898382100F098
:103F6000A2F8059B069A08986A2100F09CF8059B28
:103F7000069A0898232100F096F8069A079B08985D
:103F8000372100F090F8FFF789FF002815D1FFE7EF
:103F9000682000906B21012301931A4600F083F8FA
:103FA000019A00986C21002300F07DF8322000F087
:103FB00037F9019809A9087003E009A900200870E1
:103FC000FFE709A800780AB080BDC04600000A409B
:103FD00010B586B004AC207003A8017002A802706E
:103FE0000193FFF743FE04984006000E00F0A2FF85
:103FF000FFF79CFD012806D1FFE7FFF765FE05A945
:10400000012008704BE003A8007800F093FFFFF751
:104010008DFD012806D1FFE7FFF756FE05A9022016
:1040200008703CE0FFF722FE04984000401CC0B23C
:1040300000F080FFFFF77AFD012806D1FFE7FFF7C8
:1040400043FE05A90320087029E069460020087096
:10405000FFE76846007802A90978491E88420FDA0E
:10406000FFE700F0D3FB01996A46127888540020DC
:10407000FFF7BCFDFFE70098401C69460870E8E7C1
:1040800000F0C4FB01996A46127888540120FFF7BA
:10409000ADFDFFF719FE05A900200870FFE705A890
:1040A000007806B010BD10B586B004AC207003A82F
:1040B000017002A802700193694600200880FFF792
:1040C000D5FD04984006000E00F034FFFFF72EFDEA
:1040D000012806D1FFE7FFF7F7FD05A901200870C9
:1040E00037E003A8007800F025FFFFF71FFD012847
:1040F00006D1FFE7FFF7E8FD05A90220087028E0D8
:10410000694600200880FFE76846008802A9097810
:10411000884218DAFFE7019869460988405C00F098
:1041200009FFFFF703FD012807D1FFE7FFF7CCFDEB
:104130000098C01C05A908700BE0FFE70098401C20
:1041400069460880E0E7FFF7BFFD05A90020087079
:10415000FFE705A8007806B010BD80B582B0014623
:1041600001A801700078C30068201C210122FFF71C
:104170009AFF02B080BD80B582B0014601A80170EF
:104180000078C30068201B210122FFF78CFF02B0DA
:1041900080BD80B584B0014603A8018002AA002139
:1041A00011700088BC2804DBFFE702A90120087019
:1041B0002BE003A80088622804DBFFE702A90220A5
:1041C000087021E003A800882A2804DBFFE702A981
:1041D0000320087017E003A80088142804DBFFE719
:1041E00002A9042008700DE003A800880A2804DB57
:1041F000FFE702A90520087003E002A90620087065
:10420000FFE7FFE7FFE7FFE7FFE768201A2101224A
:1042100002AB0193FFF747FF0199087004B080BD1E
:1042200080B584B0014603A8018000881549884202
:1042300005DBFFE77D20C00003A90880FFE703A896
:104240000088032804DCFFE703A904200880FFE7B7
:1042500003A8019001887D20C000FCF769F8401E8A
:1042600002AB00931870682019210122FFF71BFF91
:10427000009A01460198117000884008FFF789FFF5
:1042800004B080BDE903000080B52748007801280C
:1042900048D1FFE725480D214901405C01280AD19A
:1042A000FFE700F00DFF012804D1FFE71E490020C1
:1042B0000870FFE735E01D480D214901405C0228E8
:1042C0000AD1FFE700F066FF012804D1FFE7164995
:1042D00000200870FFE723E014480D214901405CED
:1042E00003280AD1FFE701F01BF8012804D1FFE7FA
:1042F0000D4900200870FFE711E00C480D2149012D
:10430000405C04280AD1FFE701F03CF9012804D100
:10431000FFE7054900200870FFE7FFE7FFE7FFE739
:10432000FFE7FFE780BDC046D2052020A401202082
:1043300010B58AB00990089107A8028006A80380EA
:10434000089800280ED5FFE70898414223480590B9
:104350000022FFF7D5F905981921C9010122FFF7BD
:10436000CFF90CE01920C1011C4804900022FFF78E
:10437000C7F9049808990122FFF7C2F9FFE70998E5
:1043800000280ED5FFE70998414214480390022205
:10439000FFF7B6F903981921C9010322FFF7B0F915
:1043A0000CE01920C1010D4802900222FFF7A8F984
:1043B000029809990322FFF7A3F9FFE707A80188EC
:1043C000074801900022FFF79BF9019806A9098888
:1043D0000122FFF795F90AB010BDC04600008640E3
:1043E0000020864080B584B003A9087002A900208F
:1043F0000870FFE702A80078072824DCFFE702988E
:10440000B030C0B200F03CF8012000F039F81020C4
:1044100000F036F801A900200870FFE701A8007835
:104420007F280ADCFFE703A8007800F033F8FFE7F5
:104430000198401C01A90870F0E7FFE70298401CB2
:1044400002A90870D6E704B080BD80B584B003AA85
:104450000192107002A801700298B030C0B200F052
:104460000FF8019800780009103000F009F803985F
:10447000012108430F21084000F002F804B080BD7C
:1044800080B582B0014601A80170007800F00CFAF6
:1044900002B080BD80B582B0014601A801700078ED
:1044A00000F024FA02B080BD80B596B0149013914C
:1044B00012921498002803D1FFE70020159059E1CB
:1044C0001499086C48641499C86B0864129814997C
:1044D000886113981499C8611298139904F0B2FE78
:1044E0001499C8631498007800280AD0FFE714983C
:1044F0000078022805D0FFE714980078032800D040
:10450000C7E014980078022824D1FFE71498C06B04
:104510009A4904F0EEF9002809D1FFE714981190A8
:10452000C06B994904F09CFD1199C86311E014987F
:10453000C06B934904F0D2F9002809D1FFE7149821
:104540001090C06B8F4904F08BFD1099C863FFE792
:10455000FFE7FFE714980078032824D1FFE71498B9
:10456000C06B884904F0C5F9002809D1FFE7149809
:104570000F90C06B844904F073FD0F99C86311E07C
:104580001498C06B804904F0A9F9002809D1FFE70D
:1045900014980E90C06B7B4904F062FD0E99C863BD
:1045A000FFE7FFE7FFE7149909914868C96B04F03A
:1045B000F1FD09994862149A0B929068D16B926A46
:1045C0000A9204F0E7FD0A9904F04AFD0B9988620B
:1045D0001499486B88631499086B486314990C917B
:1045E000C86B096C04F02EFE0C99086314990D91A8
:1045F000C868096B04F0CEFD0D99C8621499886AE9
:10460000496904F076F9002804D1FFE71499486954
:10461000886212E01499886A49690122D2075140E0
:1046200004F05CF9002807D1FFE7149948690122DA
:10463000D20750408862FFE7FFE714990891486A63
:10464000896A04F00DFD0899C96A04F009FD08990A
:1046500008621499086A096904F04BF9002804D12A
:10466000FFE714990869086212E01499086A096959
:104670000122D207514004F031F9002807D1FFE7A9
:10468000149908690122D20750400862FFE7FFE74A
:104690006CE014980078012867D1FFE71499029123
:1046A00048680190C86B096C04F0CCFD0146019884
:1046B00004F070FD02994862149903918868C96BEF
:1046C00004F068FD039988621499486B8863149913
:1046D000086B486314980590C16B0491016C0846FF
:1046E00004F0BEFC0146049804F0ACFD0599496C49
:1046F00004F0B6FC0599086314990691C868096B23
:1047000004F048FD0699C86214990791486A896ABD
:1047100004F0A6FC0799C96A04F0A2FC01460798B8
:10472000006A04F09DFC079908621499086A0969F7
:1047300004F0DFF8002804D1FFE714990869086243
:1047400012E01499086A09690122D207514004F065
:10475000C5F8002807D1FFE7149908690122D2079C
:1047600050400862FFE7FFE7FFE7FFE71498006AA1
:104770001590FFE7159816B080BDC0460000344381
:10478000000034C30000B4430000B4C310B585B0CA
:10479000079C049003A801700292019304980028DA
:1047A00004D0FFE70298002801D1FFE72BE003982F
:1047B000049908700298006804994860029840685B
:1047C00004998860029880680499C86001980499E7
:1047D0000861079804994861049900200090886353
:1047E0000499486304990863049908620499C862AB
:1047F0000499886204994862049948640499086499
:104800000499C863FFE705B010BD000080B586B00D
:1048100004A90020039008700120FEF755FB0398BF
:1048200005A90870FFE705A80078072834DCFFE732
:10483000B648029001210091FEF7DAFA05200190B6
:1048400001F02EFA00990298FEF7E6FB019801F0BC
:1048500027FA02980499490004AA11700221FEF770
:104860009BFB8007002804D5FFE70120002804D126
:1048700009E00120002806D1FFE704980121084340
:1048800004A90870FFE7052001F00AFAFFE7059880
:10489000401C05A90870C6E79C480121FEF7A8FA4C
:1048A00004A8007806B080BD80B586B005A9019146
:1048B0000870012000900105049193480390FEF7D1
:1048C000B5FA0099039849040291FEF7AFFA0198EE
:1048D000007800F027F802990398FEF7BBFB0398D5
:1048E0000499FEF7B7FB06B080BDC04680B586B020
:1048F00005A90291087001200190010503918248E9
:104900000490FEF793FA019904984904FEF7A2FB7C
:104910000298007800F006F803990498FEF79AFBD5
:1049200006B080BD80B582B001A90870FFE7BD4820
:10493000FEF7E2FB002801D0FFE7F8E701A80178C5
:10494000B848FEF73FFCFFE7B648FEF7DFFB00285C
:1049500001D0FFE7F8E7B348FEF7E4FB02B080BD03
:1049600080B590B01E2007210291FEF7F1FA0120D8
:104970000B90810364480E90FEF770FA02980821AC
:104980000391FEF7E5FA039960480C90FEF766FA8A
:104990000D2005210891FEF7DBFA0C988021FEF727
:1049A0005DFA03980899FEF7D3FA0C981021049148
:1049B000FEF754FA08992420FEF7CAFA0B990C98CE
:1049C000C903FEF74BFA0C2004210A91FEF7C0FA46
:1049D0000E9802210791FEF741FA07991420FEF77D
:1049E000B7FA07991520FEF7A5FA07991220FEF7E6
:1049F000AFFA07991320FEF79DFA07990E20FEF7EC
:104A0000A7FA07990F20FEF795FA07992D20FEF7D0
:104A10009FFA07992E20FEF78DFA2620032109918F
:104A2000FEF796FA09991F20FEF792FA09992520B8
:104A3000FEF780FA3B20FEF769FA0498FEF73AFA8F
:104A40001120FEF737FA1620FEF734FA1720FEF78A
:104A500031FA0B980023069300934204059230200C
:104A60001946FEF73BFA059A069B00933220194639
:104A7000FEF734FA0698FEF749FA0B98FEF746FA65
:104A80000798FEF743FA0898FEF714FA3820FEF765
:104A90003DFA3920FEF73AFA3120FEF737FA099845
:104AA000FEF734FA0A98FEF731FA2020FEF72EFAC4
:104AB0002A20FEF72BFA2F20FEF728FA0C9814492B
:104AC000FEF782F90B990C980907FEF791FA0C98FA
:104AD0001049FEF7C3F90E980F490D91FEF774F9CE
:104AE0000D990E98FEF7BAF90E9855210902FEF7B6
:104AF00071FA0E98F0210F91FEF74CF90E980F996C
:104B0000FEF79EF910B080BD00200A4000000A4068
:104B100003000068030000780000530C80B588B0E3
:104B20002F4930480790FEF701FE07982E49FEF7FF
:104B3000A3FB07981921C901049100220592FEF7F1
:104B4000DFFD059B0798009319461A46FEF7B8FD4E
:104B5000059A07981146FEF749FD04990798012226
:104B60000292FEF7CDFD0299059B07980091194628
:104B70001A46FEF7A5FD029A05990798FEF736FD3D
:104B80000499079802220392FEF7BAFD0399059B48
:104B90000798009119461A46FEF792FD039A059967
:104BA0000798FEF723FD0499079803220692FEF763
:104BB000A7FD059B06990798009119461A46FEF72E
:104BC0007FFD0599069A0798FEF710FD0798FEF7F6
:104BD000C9FB07980F21FEF7FFFC08B080BDC04657
:104BE0000AA400000000864010A4000080B582B036
:104BF0000B49CF480190FEF7BBFA01980A49FEF72E
:104C000057FA01980F21FEF7A3FA0198102102220A
:104C1000FEF7C0FA0198FEF735FA02B080BDC04633
:104C200018A4000000A046401AA4000080B582B07D
:104C300000200190FEF7ECFA0198FEF7F5FAFEF776
:104C4000CDFAFEF7D1FAFEF7D9FA02B080BD80B5F1
:104C50002020FEF7FDFAFEF7F5FA80BD80B586B09C
:104C60001C49AE480590FEF761FD05981A49FEF70C
:104C700003FB05981949019100220392FEF740FDBC
:104C8000039B05980093102202921946FEF718FD27
:104C9000039A05981146FEF7A9FC0199059801228F
:104CA0000492FEF72DFD029A039B0499059800914A
:104CB0001946FEF705FD0399049A0598FEF796FC40
:104CC0000598FEF74FFB05980321FEF785FC06B01B
:104CD00080BDC04624A4000028A40000204E00008F
:104CE00080B582B00849E7480190FEF71FFD0198A2
:104CF0000649FEF7EBFB01980121FEF73DFB019809
:104D0000FEF730FB02B080BD30A4000034A40000E8
:104D100080B582B00D4982480190FEF7E1FD01980F
:104D20000B49FEF771FD01980021FEF7EBFD01989C
:104D300002210B22FEF7AEFD019801218902FEF748
:104D40003FFD0198FEF731FD02B080BD48A4000090
:104D50004AA4000080B582B00D4972480190FEF768
:104D6000BFFD01980B49FEF74FFD01980021FEF7AA
:104D7000C9FD019802210B22FEF78CFD019801214B
:104D80008902FEF71DFD0198FEF70FFD02B080BD00
:104D900054A4000056A4000080B582B00D496348B9
:104DA0000190FEF79DFD01980B49FEF72DFD01983E
:104DB0000021FEF7A7FD019802210B22FEF76AFDF4
:104DC000019801218902FEF7FBFC0198FEF7EDFC3A
:104DD00002B080BD60A4000062A4000080B582B073
:104DE0000D4951480190FEF77BFD01980B49FEF7F4
:104DF0000BFD01980021FEF785FD019802210B2291
:104E0000FEF748FD019801218902FEF7D9FC0198BF
:104E1000FEF7CBFC02B080BD6CA400006EA40000C5
:104E200080B500F02BF8FFF79BFDFFF7FFFEFFF7C3
:104E300075FEFFF713FFFFF753FFFFF769FFFFF75B
:104E400089FFFFF7CBFFFFF7A7FFFFF7CFFEFFF7C5
:104E5000FEFE0649B82200208854054988540549B9
:104E60002C22885404492422885480BD60032020C9
:104E700044042020000520201C04202080B58AB096
:104E800054480090FEF79EF88C480190FEF79AF87F
:104E900021480290FEF798FB20480390FEF794FB10
:104EA00078480490FEF790FB1D480590FEF7E6FC5D
:104EB0001C480690FEF7E2FC1B480790FEF7DEFC5C
:104EC0001A480890FEF7DAFC19480990FEF734F901
:104ED0000098FDF7D9FF0198FDF7D6FF0298FEF77D
:104EE00059FA0398FEF756FA0498FEF753FA059814
:104EF000FEF774FC0698FEF771FC0798FEF76EFC4F
:104F00000898FEF76BFC0998FEF7C6F81020FDF72D
:104F1000E7FE0AB080BDC046000086400020864003
:104F20000080104000001040000050400020104061
:104F300000A0464080B58AB009A9087000200790FB
:104F4000089001200690FDF7EBFF22480590022112
:104F50000491FEF761F804990598FDF789FF05981B
:104F60000699FDF745FF07980890FFE7089807287E
:104F70002DDCFFE709A80078C009002805D0FFE76D
:104F800014480221FEF748F804E012480221FDF718
:104F90002FFFFFE70120029000F082FE02990D48EA
:104FA0000190FEF739F80520039000F079FE019892
:104FB0000299FDF71DFF039800F072FE099840006A
:104FC00009A90870FFE70898401C0890CEE70AB0CE
:104FD00080BDC04600000A4080B52A48FEF7E6F9C9
:104FE00001284CD1FFE728480168491C016001688D
:104FF000264848430121C8412549884204D8FFE793
:10500000244901200870FFE71F4801681F484843F2
:105010000221C8412049884204D8FFE71F490120E6
:105020000870FFE7184801681D4848430221C8413D
:105030001C49884204D8FFE71B4901200870FFE79C
:1050400011480168194848430121C841184988425C
:1050500004D8FFE7174901200870FFE70A480168F4
:10506000124848430321C8411349884206D8FFE744
:10507000312081051148FDF7F9FFFFE700E0FFE768
:1050800080BDC0460040084034052020CDCCCCCCAB
:1050900099999919D0002020CCCCCC0CE400202088
:1050A000EFEEEEEE44444404D1052020D578E92605
:1050B000DD240601EA0020203789410000200A4053
:1050C00080B584B02D4800780290002808D0FFE712
:1050D0000298012826D0FFE70298022842D047E034
:1050E00027490878401C0870C0B20B2819DBFFE77D
:1050F000234900200870854801900169214801601A
:105100000068214903F0ACFF0199204A10604A6A07
:105110001F4802600068C86218490878401C08707F
:10512000FFE725E07949FF22A23201208854754922
:1051300008707349087071480078002811D1FFE7A2
:105140006F49002008706F4908707049FF22A23231
:1051500088546D490120087008490878401C08707F
:10516000FFE705E00549002008700120039002E0F8
:1051700000200390FFE7039804B080BD09012020C0
:105180000801202010012020008054455C032020CD
:105190000C01202080B582B0574800780090052887
:1051A00000D9A2E00098810001A040588746C0467F
:1051B000C9510000F75100003B5200007952000035
:1051C000A9520000DF52000054490878401C0870C2
:1051D000C0B20B280EDBFFE7504900200870DB4906
:1051E0004A6A4C4802600068C86243490878401C1B
:1051F0000870FFE779E0D549FF22A23201208854E8
:10520000D54A43491160F7490870CF480078002813
:1052100012D1FFE7F34900200870D7490870F04920
:1052200001200870CC4ACD491160C9490870324943
:105230000878401C0870FFE757E0C3480078012851
:1052400019D1FFE7E74901200870CB4A002111700E
:10525000E34A1170C04A2E491160BD4908702D48BB
:1052600000682D4903F0FCFEDF49C8622249087836
:10527000401C0870FFE738E0B3480078002812D1DE
:10528000FFE7D84900200870BB490870D4490120C5
:105290000870AF490870B0491D4808601649087881
:1052A000401C0870FFE720E0A7480078012815D1CE
:1052B000FFE7A94900200860CA490870AE49087094
:1052C000C7490870A24A01211170C749FF22A232C2
:1052D000885409490878401C0870FFE705E0064932
:1052E000002008700120019002E000200190FFE7FB
:1052F000019802B080BDC046150120201800202072
:10530000980120204B052020A0012020A40120206E
:105310000000C8411801202000003443140120205F
:1053200080B586B0864800880490062800D900E140
:105330000498810001A040588746C0465953000098
:10534000AF530000115400003D540000A154000070
:10535000E3540000275500007E490888401C08805F
:1053600080B20B2822DBFFE77A49002008809E48A4
:10537000406A8249086099480078002805D0FFE714
:105380007E48006877490860FFE776480068FBF7C9
:10539000BBFD754A7A4BFBF73FFAFBF783F892495E
:1053A000C86267490888401C0880FFE7C1E08E4951
:1053B000FF22A232012088548A4908706649684851
:1053C000086064480188491C0180008865281EDB4C
:1053D000FFE760480088AB2804DBFFE75E496548CB
:1053E0000860FFE75848007800280FD1FFE76249BE
:1053F000002008707A4A01211170554A1170504AF4
:105400001188491C118053490880FFE7FFE790E0AD
:105410005149002008604F490888401C088080B22C
:1054200015280ADBFFE74B49002008806D4908700A
:1054300043490888401C0880FFE77AE0464948480D
:10544000086041480078012829D1FFE766490191A9
:10545000FF22A23201200390885442480068FBF7E3
:1054600053FD414A414BFBF7D7F900220292404BD2
:10547000FBF7D2F9FBF716F8019B02990246039855
:10548000DA62584A1070564A1170334A3449116032
:105490002F4908702A490888401C0880FFE748E027
:1054A0002C490888401C088080B2AB2804DBFFE749
:1054B00029492A480860FFE72348007800280FD1CF
:1054C000FFE7244800210180454A01201070454A29
:1054D00011701F4908701A490888401C0880FFE7AE
:1054E00027E018490888401C088080B2C92819DBC9
:1054F000FFE715480078012813D1FFE71149002084
:10550000088037490870374908703749FF22A232AE
:1055100088540F490120087009490888401C0880F8
:10552000FFE7FFE705E0064900200880012005901D
:1055300002E000200590FFE7059806B080BDC04658
:105540001E0120202401202018002020A40120205A
:10555000A00120201C012020040120200000A041E7
:105560000000084294012020666666666666404038
:1055700000806640000090414B0520202001202043
:10558000666645C080B582B01348007804280ED105
:10559000FFE711490020087011490870114908708F
:1055A000ED49FF22A23288540120019011E0FFF75B
:1055B000B7FE024608480178891801700078012872
:1055C00004DBFFE7054900200870FFE70020019099
:1055D000FFE7019802B080BD26012020380020207E
:1055E0003401202098012020A401202080B582B021
:1055F00001A9002008701348FEF7FCF80B281ED103
:10560000FFE71048FEF730F901A908700E4800883E
:105610007E280CDCFFE701980B4B1A88511C19807F
:105620000A49885401A8007802F086FE03E0064982
:1056300000200880FFE706490120087000E0FFE72E
:1056400002B080BD00801040CE0520204C052020F7
:10565000CC05202080B582B001A900200870234825
:10566000FEF7C8F80B283DD1FFE72048FEF7FCF80D
:10567000014601A801700078FF280CD1FFE71C4803
:105680000078002807D1FFE7194901200870019828
:105690001949087025E016480078012820D1FFE755
:1056A000019914480278144BD21851700178491CA2
:1056B00001700078092812D1FFE70F48407AFE28D0
:1056C00006D1FFE70B49002008700949087005E082
:1056D00008490020087006490870FFE7FFE7FFE768
:1056E000FFE700E0FFE702B080BDC04600001040C9
:1056F00028012020270120204105202080B582B0EC
:1057000001A9002008700748FEF774F80B2806D19D
:10571000FFE70448FEF7A8F801A9087000E0FFE7DA
:1057200002B080BD0020104080B582B001A90020E9
:1057300008702848FEF75EF80B2847D1FFE7254898
:10574000FEF792F8014601A801700078FF280CD1FD
:10575000FFE721480078002807D1FFE71E49012014
:10576000087001981E4908702FE01B480078012836
:105770002AD1FFE7019919480278194BD2185170C4
:105780000178491C0170007803281CD1FFE71448F8
:10579000C078FE2810D1FFE71148027811490A703D
:1057A00042784A7082788A70C078C8700B490020AD
:1057B00008700949087005E008490020087006498A
:1057C0000870FFE7FFE7FFE7FFE700E0FFE702B051
:1057D00080BDC046000050402A0120202901202021
:1057E000F3002020E500202081B000900098007890
:1057F000002835D1FFE700984078002830D1FFE736
:105800000098807800282BD1FFE70098C078002806
:1058100026D1FFE700980079002821D1FFE7009802
:10582000407900281CD1FFE700988079002817D123
:10583000FFE70098C079002812D1FFE745490878B2
:10584000401C0870C0B2032809DBFFE74049012073
:1058500008704149002048633E490870FFE70EE0A8
:105860003A490878401C0870C0B2032806DBFFE7FD
:1058700036490020087036490870FFE7FFE70098B6
:10588000C078012809D1FFE700980079012804D1E8
:10589000FFE7314900204863FFE70098C0780128FE
:1058A0000AD1FFE700980079002805D1FFE72A49CF
:1058B0003F2000064863FFE70098007901280AD1DD
:1058C000FFE70098C078002805D1FFE72249BF20F4
:1058D00000064863FFE700984079012804D1FFE7FC
:1058E0001D491E484863FFE700988079012804D1CC
:1058F000FFE719491A484863FFE70098C079012873
:1059000004D1FFE7144917484863FFE700988078FF
:10591000012805D1FFE710497F20C0054863FFE754
:1059200000984078012805D1FFE70B49FF2080054A
:105930004863FFE700980078012804D1FFE7064993
:1059400009484863FFE701B07047C0462F01202097
:10595000180020202E012020A4012020000080BF5C
:105960000000C0BF000090C00000904081B0014620
:105970006846017000214056002809D4FFE76846B8
:1059800001781F2001400120884002490860FFE79C
:1059900001B0704780E200E081B0014668460170C6
:1059A00000214056002809D4FFE7684601781F20EF
:1059B00001400120884002490860FFE701B07047BC
:1059C00000E100E081B0009001B0704780B514485C
:1059D000007801281AD1FFE712490878401C0870A6
:1059E000C0B23B2806DCFFE70120C1060E48FDF7E8
:1059F00009FB0AE00B4900200870094908700120E2
:105A0000C1060948FDF7EAF9FFE708E0054900206B
:105A100008700120C1060448FDF7E0F9FFE780BDEA
:105A2000A0012020A101202000000A4080B586B0FE
:105A3000FFF7F6F90F200190FFF798FF0198FFF7A5
:105A4000ABFF0D200290FFF791FF0298FFF7A4FF34
:105A50000E200390FFF78AFF0398FFF79DFF0320B6
:105A60000490FFF783FF0498FFF796FF102005903E
:105A7000FFF77CFF0598FFF78FFF0120FFF78CFFF2
:105A800002F0B0FA1448FAF717FCFEF735FAFFE710
:105A9000FEF732FA00280BD1FFE7002100910846FB
:105AA000FEF7D2F900990E4A084600F011F9EFE727
:105AB000FFE701F0A7F9002807D0FFE70748FAF74A
:105AC000FBFBC82000F0D0F8F3E70348FAF7F4FB3B
:105AD00002F0D4FB06B080BDAFA40000DAA4000041
